:100000000C94BE000C94E7000C94E7000C94E700FD
:100010000C94E7000C94E7000C946C080C94E70037
:100020000C94E7000C94E7000C94E7000C942B0E62
:100030000C94E7000C94E7000C948B0D0C94E700F3
:100040000C94E7000C94E7000C94E7000C94E70094
:100050000C94E7000C94E7000C94E7000C944D0E10
:100060000C94E7000C94E700D2084E09A6089D08FE
:10007000A30830092509B00F8D0E8D0EAD0FB90FF5
:10008000A90FC00FBC0FC40F7C0F4E0F084AD73BFF
:100090003BCE016E84BCBFFDC12F3D6C74319ABD57
:1000A00056833DDA3D00C77F11BED9E4BB4C3E917B
:1000B0006BAAAABE000000803F05A84CCDB2D44E6A
:1000C000B93836A9020C50B9918688083CA6AAAA6C
:1000D0002ABE000000803F08000000BE92244912A2
:1000E0003EABAAAA2ABECDCCCC4C3E00000080BEBE
:1000F000ABAAAAAA3E00000000BF000000803F009B
:1001000000000000084178D3BB4387D1133D190E8E
:100110003CC3BD4282AD2B3E68EC8276BED98FE1F6
:10012000A93E4C80EFFFBE01C4FF7F3F00000000EE
:10013000000664EC1B3C04BC163E3BE5B93CC93CE4
:1001400037C29E5A3D660498083EEA69AAAA3E0054
:100150000000803F07634236B79BD8A71A3968561C
:1001600018AEBAAB558C1D3CB7CC5763BD6DEDFDD9
:10017000753EF6177231BF000000803F11241FBE8C
:10018000CFEFD8E0DEBFCDBF14BE0FB6F894A89570
:1001900080916000886180936000109260000FBEC3
:1001A00011E0A0E0B1E0E6EBFDE202C005900D92A7
:1001B000AC31B107D9F721E0ACE1B1E001C01D924B
:1001C000A93AB207E1F70E94F6100C94D9160C94E4
:1001D000000080913101882319F08FE391E00895A8
:1001E00080E090E00895109231010895CF93DF935D
:1001F000EC01CB010E94CC0A8536E0F4888180FDB9
:100200001CC08091370190913801A0913901B091C3
:100210003A01892B8A2B8B2B09F464C0809133011E
:1002200090913401A0913501B0913601892B8A2B30
:100230008B2BB9F1DF91CF9108958091330190918B
:100240003401A0913501B0913601892B8A2B8B2B7B
:1002500089F780916E0190916F01A0917001B0912A
:1002600071018093330190933401A0933501B093D1
:1002700036018093400190934101A0934201B093D5
:1002800043018FE391E00E94571090934A018093BD
:10029000490181E08093300184E0DF91CF910C949B
:1002A000070E80916E0190916F01A0917001B09145
:1002B00071018093330190933401A0933501B09381
:1002C00036018093400190934101A0934201B09385
:1002D00043018FE391E00E94571090934A0180936D
:1002E0004901A8CF80916E0190916F01A09170019A
:1002F000B09171018093370190933801A093390137
:10030000B0933A018093440190934501A093460134
:10031000B09347018FE391E00E94571090934A01F8
:100320008093490181E08093300181E10E94070EB2
:1003300075CFCF9360E080E00E94E6090E94450AF5
:10034000C82F0E94AC0A8C2F90E00E946416C1E076
:10035000C0933F0110924001109248018FE391E059
:100360000E94571090934A01809349018091320175
:10037000813051F00E94EB096091A7018091A601A4
:100380000E94E609C0933201CF9108958F929F9207
:10039000AF92BF92CF92DF92EF92FF9280913201A3
:1003A000813009F496C008F48AC0843008F087C010
:1003B00040916E0150916F016091700170917101D7
:1003C000C0902B01D0902C01E0902D01F0902E01D7
:1003D0008091240190912501A0912601B0912701DF
:1003E0008C0D9D1DAE1DBF1D84179507A607B70771
:1003F00008F46CC180913001882379F1809131013A
:1004000081112BC040916E0150916F01609170017C
:10041000709171018091200190912101A0912201A0
:10042000B09123018096A11DB11D84179507A607E1
:10043000B70798F480916E0190916F01A0917001BF
:10044000B09171018093200190932101A09322012A
:10045000B093230181E08093310140916E0150916E
:100460006F01609170017091710180911C019091F8
:100470001D01A0911E01B0911F0180599F4FAF4FE8
:10048000BF4F84179507A607B70780F480916E01C8
:1004900090916F01A0917001B091710180931C0146
:1004A00090931D01A0931E01B0931F01FF90EF9048
:1004B000DF90CF90BF90AF909F908F90089588234A
:1004C00009F498CF60E080E00E94E60910923201C2
:1004D00091CF40916E0150916F01609170017091C8
:1004E000710120912801309129018091240190917E
:1004F0002501A0912601B0912701820F931FA11D14
:10050000B11D84179507A607B70708F073CF809130
:100510006E0190916F01A0917001B0917101809373
:10052000240190932501A0932601B09327010E94F6
:10053000940A80FFE7C080913201823051F00E941E
:10054000EB0960E08091A8010E94E60982E08093B7
:1005500032010E945F16BC01990F880B990B0E9413
:10056000A01220E030E0A9010E94511120E030E00B
:1005700040E058E30E940E1420E030E040E05FE3EA
:100580000E9450112BED3FE049E450E40E940E140C
:100590000E941D1529E334E947E55DE30E940E142E
:1005A0000E94BD119B01AC010E9451119F772BED60
:1005B0003FE049E450E40E94F61120E030E040E2E0
:1005C00053E40E940E140E946F1260932B017093EB
:1005D0002C0180932D0190932E010E945F16BC0187
:1005E000990F880B990B0E94A01220E030E0A9011E
:1005F0000E94511120E030E040E058E30E940E14C8
:1006000020E030E040E05FE30E9450112BED3FE03E
:1006100049E450E40E940E144B015C010E945F16F5
:10062000BC01990F880B990B0E94A01220E030E0CA
:10063000A9010E94511120E030E040E058E30E94FF
:100640000E149B01AC0160E070E080E89FE30E9423
:1006500050110E94C6136B017C01F7FAF094F7F871
:10066000F09420E030E0A901C701B6010E94EC112E
:100670008823A1F2C501B4010E94CB144B015C0197
:10068000C701B6010E94D9146B017C01A501940138
:10069000C501B4010E945111A70196010E940E14D8
:1006A00020E030E040EA52E40E940E140E946812FA
:1006B000072E000C880B990B0E94A0129F770E94B6
:1006C0006F12709329016093280194CE80916E017E
:1006D00090916F01A0917001B091710180932401FC
:1006E00090932501A0932601B09327010E94EB0966
:1006F0006091A7018091A6010E94E60981E08093A4
:10070000320178CE80913201833009F422CF0E94E9
:10071000EB096091940180E00E94E60983E08093F8
:10072000320117CF4F925F926F927F928F929F927A
:10073000AF92BF92CF92DF92EF92FF926B017C015A
:1007400049015A010E945F16BC01990F880B990B51
:100750000E94A0122B013C01A7019601C501B40122
:100760000E9450119B01AC01C301B2010E940E1402
:10077000A70196010E94511120E030E040E058E3CB
:100780000E940E14FF90EF90DF90CF90BF90AF903B
:100790009F908F907F906F905F904F9008954F92B1
:1007A0005F926F927F928F929F92AF92BF92CF9201
:1007B000DF92EF92FF926B017C010E945F16BC01F9
:1007C000990F880B990B0E94A01220E030E0A9013C
:1007D0000E94511120E030E040E058E30E940E14E6
:1007E00020E030E040E05FE30E9450112BED3FE05D
:1007F00049E450E40E940E140E941D154B015C0157
:10080000A701960160E070E080E89FE30E9450112C
:100810002B013C0120E030E040E85FE3C701B60176
:100820000E9451119B01AC01C301B2010E94F6115B
:100830009B01AC01C501B4010E940E140E94BD11C0
:100840009B01AC010E945111FF90EF90DF90CF907F
:10085000BF90AF909F908F907F906F905F904F90E0
:100860000895CF92DF92EF92FF926B017C010E947C
:100870005F16BC01990F880B990B0E94A01220E013
:1008800030E0A9010E94511120E030E040E058E33F
:100890000E940E149B01AC0160E070E080E89FE3D1
:1008A0000E9450110E94C6139B01AC01C701B60102
:1008B00090580E940E14FF90EF90DF90CF90089513
:1008C0004F925F926F927F928F929F92AF92BF9260
:1008D000CF92DF92EF92FF92CF93DF93CDB7DEB747
:1008E00064970FB6F894DEBF0FBECDBF69837A83DD
:1008F0008B839C8329013A010E945F16BC01990FEA
:10090000880B990B0E94A01220E030E0A9010E9400
:10091000511120E030E040E058E30E940E1420E046
:1009200030E040E05FE30E9450112BED3FE049E4EE
:1009300050E40E940E144B015C0120E030E040E8DE
:100940005FE3C301B2010E94EC11882309F4DFC008
:100950000E945F16BC01990F880B990B0E94A01290
:1009600020E030E0A9010E94511120E030E040E099
:1009700058E30E940E149B01AC0160E070E080E837
:100980009FE30E9450110E94C6136B017C01F7FA8D
:10099000F094F7F8F09420E030E0A901C701B60127
:1009A0000E94EC118823A1F220E030E040E050E406
:1009B000C301B2010E94EC11882309F486C0A5018D
:1009C0009401C301B2010E940E140E94CB146987E6
:1009D0007A878B879C87C501B4010E94F1116D83D2
:1009E0007E838F839887A301920160E070E080E8A6
:1009F0009FE30E94F6119B01AC016D817E818F8186
:100A000098850E947B14698B7A8B8B8B9C8BA301BE
:100A1000920160E070E080E89FE30E9450116D83D6
:100A20007E838F8398879B01AC01C501B4010E942E
:100A30000E140E94F1116D877E878F87988BA3011A
:100A400092016D817E818F8198850E94F6114B0104
:100A50005C01A70196016D857E858F8598890E942E
:100A6000F611A50194010E947B146B017C01298978
:100A70003A894B895C8969857A858B859C850E943A
:100A8000F6119B01AC0169817A818B819C810E9466
:100A90000E14A70196010E940E140E946812CB0149
:100AA00064960FB6F894DEBF0FBECDBFDF91CF9135
:100AB000FF90EF90DF90CF90BF90AF909F908F907E
:100AC0007F906F905F904F900895C501B4010E9490
:100AD000CB144B015C01C701B6010E94D9146B0114
:100AE0007C01A5019401C501B4010E945111A70127
:100AF00096010E940E149B01AC0169817A818B8161
:100B00009C810E940E140E946812CB01C9CFC501BE
:100B1000B4010E941D15EFCFCF9390913201981729
:100B200069F0C82F8230A1F0833051F08130C1F0DC
:100B300060E080E00E94E609C0933201CF91089501
:100B40000E94EB096091940180E00E94E609F4CFD5
:100B50000E94EB0960E08091A8010E94E609ECCFB9
:100B60000E94EB096091A7018091A6010E94E6090D
:100B7000E3CF80913001882379F180913101811197
:100B80002BC040916E0150916F0160917001709186
:100B900071018091200190912101A0912201B091D9
:100BA00023018096A11DB11D84179507A607B707DD
:100BB00098F480916E0190916F01A0917001B091B5
:100BC00071018093200190932101A0932201B093A1
:100BD000230181E08093310108958F929F92AF921B
:100BE000BF92CF92DF92EF92FF92809132018130DB
:100BF000B9F168F1843058F540916E0150916F0160
:100C00006091700170917101C0902B01D0902C0106
:100C1000E0902D01F0902E0180912401909125010A
:100C2000A0912601B09127018C0D9D1DAE1DBF1D09
:100C300084179507A607B70708F40EC1FF90EF9039
:100C4000DF90CF90BF90AF909F908F9008958823B2
:100C5000A9F360E080E00E94E60910923201EECF35
:100C600040916E0150916F0160917001709171011E
:100C70002091280130912901809124019091250132
:100C8000A0912601B0912701820F931FA11DB11DD4
:100C900084179507A607B70788F680916E01909193
:100CA0006F01A0917001B091710180932401909324
:100CB0002501A0932601B09327010E94940A80FF8A
:100CC000E7C080913201823051F00E94EB0960E070
:100CD0008091A8010E94E60982E0809332010E947F
:100CE0005F16BC01990F880B990B0E94A01220E09F
:100CF00030E0A9010E94511120E030E040E058E3CB
:100D00000E940E1420E030E040E05FE30E945011AA
:100D10002BED3FE049E450E40E940E140E941D15A3
:100D200029E334E947E55DE30E940E140E94BD11FA
:100D30009B01AC010E9451119F772BED3FE049E4EC
:100D400050E40E94F61120E030E040E253E40E94BB
:100D50000E140E946F1260932B0170932C018093EC
:100D60002D0190932E010E945F16BC01990F880BF4
:100D7000990B0E94A01220E030E0A9010E945111BD
:100D800020E030E040E058E30E940E1420E030E024
:100D900040E05FE30E9450112BED3FE049E450E456
:100DA0000E940E144B015C010E945F16BC01990F5A
:100DB000880B990B0E94A01220E030E0A9010E944C
:100DC000511120E030E040E058E30E940E149B01F6
:100DD000AC0160E070E080E89FE30E9450110E9447
:100DE000C6136B017C01F7FAF094F7F8F09420E059
:100DF00030E0A901C701B6010E94EC118823A1F2DD
:100E0000C501B4010E94CB144B015C01C701B601BE
:100E10000E94D9146B017C01A5019401C501B401A4
:100E20000E945111A70196010E940E1420E030E0AB
:100E300040EA52E40E940E140E946812072E000C31
:100E4000880B990B0E94A0129F770E946F127093DB
:100E5000290160932801F2CE80916E0190916F017B
:100E6000A0917001B09171018093240190932501AC
:100E7000A0932601B09327010E94EB096091A7017E
:100E80008091A6010E94E60981E080933201D6CECE
:100E900080913201833009F422CF0E94EB096091E6
:100EA000940180E00E94E60983E08093320117CF2D
:100EB00040916E0150916F016091700170917101CC
:100EC00080911C0190911D01A0911E01B0911F0104
:100ED00080599F4FAF4FBF4F84179507A607B7079D
:100EE00080F480916E0190916F01A0917001B0919A
:100EF000710180931C0190931D01A0931E01B0937A
:100F00001F010895089580E090E008950895DF920C
:100F1000EF92FF920F931F93CF93DF93F89414B83F
:100F200017B81AB815B818B81BB8529A5A9A14BC00
:100F300085E085BD8FEF87BD82E080936E001092C3
:100F40008000109281002FE83BE0309389002093CD
:100F5000880080936F005398239891EA9093B00093
:100F60008093B1001092B4001092B3008BE080BF68
:100F700083E080937F0086E080937C0083E8809309
:100F80007A0080917A00806480937A0080917A0060
:100F900086FDFCCF10927C0083EA80937A0081E08A
:100FA00080937B0081E090E00E946F168F3F11F0EC
:100FB0008093660010927201C1E0C0934B01C09310
:100FC0008F01109269011092A30180E990E00E94C4
:100FD0006F168093680180916801887311F0C09347
:100FE000680110929301109292018FEF90E090931C
:100FF00091018093900110926E0110926F011092F6
:1010000070011092710181E080933E0182E49FE0C3
:101010009093A2018093A10180EB90E00E946F1653
:10102000C82F81EB90E00E946F162C2F30E0382BF8
:101030003093A5012093A40185E090E00E946F16F3
:101040008093A80189E090E00E946F16809394013C
:101050008CE090E00E946F168093A60184E190E0FE
:101060000E946F168093A70153E7E52E51E0F52EFD
:101070000CE411E0C0E2D0E0CE010E946F16D82E41
:10108000CE0101960E946F162D2D30E0322F2227BF
:10109000282BF701219331937F01CE01C0960E9446
:1010A0006F16D82ECE01C1960E946F162D2D30E0FE
:1010B000322F2227282BF801219331938F0122967A
:1010C000CC33D105C9F67894DF91CF911F910F9160
:1010D000FF90EF90DF9008951F920F920FB60F923E
:1010E00011248F930FB6F894A895809160008861C1
:1010F00080936000109260000FBE8F910F900FBE22
:101100000F901F9018953C01EB0110E099249A94E0
:1011100084E0C82E96E0A92E23E8B22E38E1D32E23
:1011200049E2E42E90913E01E92FF0E0E730F1052D
:10113000C8F7EC5CFF4F0C942711112309F4FCC095
:10114000C0923E0111E0FE010995ECCF8091720141
:101150008111EBC0F894A0927C00B0927A0080914B
:101160007A00806480937A0090917A0096FDFCCF9B
:10117000809178009091790078948B3AE2E09E0714
:101180000CF0EDC08938F2E09F070CF0EFC0873615
:1011900092400CF4CAC0559A549A3B9A3A9A3D9898
:1011A0003C98C0CFF89480B7877F80BF80917A0049
:1011B0008F7780937A0014B817B81AB815B818B892
:1011C0001BB80FB6F894A895D09260000FBEE092BD
:1011D00060008091600080648093600093B7917F8D
:1011E000946093BFF89483B7816083BF78948895A7
:1011F00083B78E7F83BF789410927201529A5A9A65
:1012000080917A00806880937A0087E592E0019768
:10121000F1F700C0000080B7886180BF559A549AEA
:101220003B9A3A9A3D9A3C9AEFE1FEE43197F1F706
:1012300000C0000080917201811181C055985498BE
:101240003B983A983D983C986DCF80913C01811134
:1012500041C01092B3001092B40010923D0162CFD1
:101260004899ECCF559A54983B983A983D983C98B9
:101270008FEC97E00197F1F700C000005598549863
:101280003B983A983D983C989FEFE1EEF4E09150FE
:10129000E040F040E1F700C0000044CF559854987A
:1012A0003B9A3A9A3D983C98EFECF7E03197F1F78A
:1012B00000C00000559854983B983A983D983C9847
:1012C000FFEF21EE84E0F15020408040E1F700C0C4
:1012D000000028CF90913C0180913D01981709F4BE
:1012E00021CF80913C0180933D0180913C01813070
:1012F00009F450C080913C011092B3009092B40068
:101300008230D9F19092B3009092B4008FE295E7C9
:101310000197F1F700C000008091A7019091A6010C
:101320009093B3008093B400FDCE559A549A3B98A5
:101330003A983D983C98F6CEF301099501CF559A1D
:10134000549A3B983A983D983C98FFEF20E782E00A
:10135000F15020408040E1F700C000006FCF559869
:1013600054983B9A3A9A3D983C98DCCE55985498BC
:101370003B983A983D9A3C9AD5CEEFE2F5E7319703
:10138000F1F700C00000809194011092B3008093A7
:10139000B400C8CE9092B3001092B4008FE295E7EB
:1013A0000197F1F700C000008091A8018093B3007D
:1013B0001092B400B7CE07C0EFECF7E03197F1F729
:1013C00000C0000001970097B9F708958093B3001B
:1013D0006093B40008958FEF8093B3008093B400BE
:1013E0008FE090E0EFECF7E03197F1F700C00000FC
:1013F0000197C1F708958091720181111EC0F89480
:1014000087E080937C0083E880937A0080917A0063
:10141000806480937A0080917A0086FDFCCF809171
:1014200078009091790010927C0023EA20937A0052
:1014300021E020937B00789408958FEF9FEF08952B
:101440008091720181111EC0F89488EC80937C0019
:1014500087E880937A0080917A00806480937A0094
:1014600080917A0086FDFCCF809178009091790080
:1014700010927C0023EA20937A0021E020937B00E5
:10148000789408958FEF9FEF08950F931F93CF9354
:10149000DF93E0E0F0E080E003EA11E0D6E0C3E8AB
:1014A000A1E0B0E060E870E0F894D0937C00C093D5
:1014B0007A0090917A00906490937A0090917A00EB
:1014C00096FDFCCF209178003091790021709091A9
:1014D0007A00906490937A0090917A0096FDFCCF08
:1014E000409178005091790010927C0000937A002E
:1014F00010937B0078944170241303C061507109EC
:1015000099F6222339F09D010E2E01C0220F0A9474
:10151000EAF7822B3196E830F10509F0C3CFDF916D
:10152000CF911F910F91089580910001982F990FED
:10153000990F990F892790913B0121E0290F209362
:101540003B01282F22952695277082279695969500
:101550008927809300010895809300010895809168
:101560007201811116C0F89486E080937C0083E8B4
:1015700080937A0080917A00806480937A008091D1
:101580007A0086FDFCCF8091780090917900789464
:1015900008958FEF9FEF08952F923F924F925F92A1
:1015A0006F927F928F929F92AF92BF92CF92DF9273
:1015B000EF92FF920F931F93CF93DF9300D000D051
:1015C00000D0CDB7DEB71C01DC0112960D90BC91A6
:1015D000A02DBE83AD83A438E3E0BE070CF0C9C0E4
:1015E00080914C0190914D018A179B0708F437C1F7
:1015F00000914E0110914F010A171B0708F42FC2EA
:1016000000915001109151010A171B0708F42FC2D5
:1016100000915201109153010A171B0708F42FC2C1
:1016200000915401109155010A171B0708F42FC2AD
:1016300000915601109157010A171B0708F4EFC1DA
:1016400000915801109159010A171B0708F427C28D
:1016500000915A0110915B010A171B0708F427C279
:1016600000915C0110915D010A171B0708F427C265
:1016700000915E0110915F010A171B0708F427C251
:1016800000916001109161010A171B0708F427C23D
:1016900000916201109163010A171B0708F423C22D
:1016A00000916401109165010A171B0708F423C219
:1016B00000916601109167010A171B0708F423C205
:1016C00080E090E0A0EDB0E489839A83AB83BC8393
:1016D0004CE0E42EF12CF701EE0FFF1FE45BFE4F10
:1016E00080819181B801681B790B80E090E00E94B5
:1016F0009E129B01AC010E9451116B017C01AD81D6
:10170000BE81BD01BB0F880B990B0E94A0124B013B
:101710005C01B80180E090E00E949E122B013C0128
:1017200029813A814B815C81C701B6010E940E1468
:101730009B01AC01C301B2010E9450119B01AC019D
:10174000C501B4010E94501120E030E040E251E4B4
:101750000E940E140E9468128B01C701B6010E94FC
:101760006812AB01BC01C801BA010E941311162F07
:1017700077C0DC01CD90DC90809173019091740171
:101780008C159D0508F48CC01FEFE0907501F0905A
:101790007601EC14FD0408F45EC1E0907701F0904E
:1017A0007801EC14FD0408F45EC1E0907901F0903A
:1017B0007A01EC14FD0408F45EC1E0907B01F09026
:1017C0007C01EC14FD0408F45EC1E0907D01F09012
:1017D0007E01EC14FD0408F4C3C0E0907F01F0909A
:1017E0008001EC14FD0408F456C1E0908101F090F2
:1017F0008201EC14FD0408F456C1E0908301F090DE
:101800008401EC14FD0408F456C1E0908501F090C9
:101810008601EC14FD0408F456C1E0908701F090B5
:101820008801EC14FD0408F456C1E0908901F090A1
:101830008A01EC14FD0408F45AC1E0908B01F09089
:101840008C01EC14FD0408F45AC1E0908D01F09075
:101850008E01EC14FD0408F45AC10AE531C010E011
:10186000ED81FE81ED3BF240FCF481E2810F269692
:101870000FB6F894DEBF0FBECDBFDF91CF911F91A1
:101880000F91FF90EF90DF90CF90BF90AF909F901F
:101890008F907F906F905F904F903F902F90089522
:1018A00000E081E2800FE3CFD101CD90DC90809108
:1018B0007301909174018C159D0508F066CF00E0CE
:1018C0001F3F79F3ED81FE81BF01FF0F880B990B5C
:1018D0000E94A0126B017C01612F70E080E090E01B
:1018E0000E949E124B015C01A701960160E070E02E
:1018F00081E694E40E9450119B01AC01C501B40142
:101900000E940E144B015C01602F70E080E090E0BB
:101910000E949E122B013C0120E030E04FE254E493
:10192000C701B6010E9450119B01AC01C301B20175
:101930000E940E149B01AC01C501B4010E9451111B
:1019400020E030E048E453E40E94F61120E030E06B
:1019500044E052E40E9451110E946F12862F87CFFB
:1019600005E085E090E0880F991FFC01EF58FE4FDD
:1019700080819181B701681B790B80E090E00E9423
:101980009E129B01AC010E9451114B015C01B601FA
:10199000DD0C880B990B0E94A0122B013C01B701B2
:1019A00080E090E00E949E126B017C01602F70E04D
:1019B00080E090E00E949E1220E030E040E05FE393
:1019C0000E940E1420E030E0A9010E945111A501EF
:1019D00094010E940E149B01AC01C701B6010E9444
:1019E00050119B01AC01C301B2010E94501120E0D3
:1019F00030E040E251E40E940E140E9468127B0124
:101A0000C501B4010E946812AB01BC01C701BA0153
:101A10000E941311062F6F3F09F052CF26CF65E0C9
:101A200085E090E07C01F1E0EF1AF10870E080E0E1
:101A300090E00E949E1220E030E040E05FE30E94D0
:101A40000E1420E030E0A9010E94511169837A83CD
:101A50008B839C8340CE01E081E090E084CF61E005
:101A600081E090E0DFCF02E082E090E07CCF62E0B6
:101A700082E090E0D7CF03E083E090E074CF63E0B2
:101A800083E090E0CFCF04E084E090E06CCF64E0AE
:101A900084E090E0C7CF06E086E090E064CF66E0A7
:101AA00086E090E0BFCF07E087E090E05CCF67E0A2
:101AB00087E090E0B7CF08E088E090E054CF68E09E
:101AC00088E090E0AFCF09E089E090E04CCF69E09A
:101AD00089E090E0A7CF0AE08AE090E044CF6AE096
:101AE0008AE090E09FCF6BE08BE090E09BCF0BE033
:101AF0008BE090E038CF6CE08CE090E093CF0CE08E
:101B00008CE090E030CF6DE08DE090E08BCF0DE089
:101B10008DE090E028CF1F920F920FB60F92112404
:101B20002F933F934F935F936F937F938F939F93E5
:101B3000AF93BF93EF93FF93209192013091930164
:101B40008091900190919101820F931F9093930146
:101B5000809392018FEF90E0909391018093900198
:101B60008FEF87BD80916E0190916F01A091700100
:101B7000B09171010196A11DB11D80936E019093EA
:101B80006F01A0937001B093710180917201811176
:101B90000FC08091A1019091A201209192013091FA
:101BA00093018217930720F480913E01843089F0DD
:101BB000FF91EF91BF91AF919F918F917F916F9125
:101BC0005F914F913F912F910F900FBE0F901F90FB
:101BD0001895E0910301F09104010995009741F3F4
:101BE0000E947310811109C00E945F16992790937B
:101BF00091018093900187BDDBCFE0910101F091CD
:101C0000020109951092930110929201D1CF80FFA9
:101C100011C0559A81FF11C0549A82FF11C03B9A9E
:101C200083FF11C03A9A84FF11C03D9A85FD11C00F
:101C30003C980895559881FDEFCF549882FDEFCFE1
:101C40003B9883FDEFCF3A9884FDEFCF3D9885FF19
:101C5000EFCF3C9A08951F920F920FB60F92112466
:101C60008F939F93109281001092850010928400B0
:101C700081E080934B0180938F011092720110924A
:101C80007C0093EA90937A0080937B009F918F91E0
:101C90000F900FBE0F901F9018951F920F920FB6C6
:101CA0000F9211242F933F934F935F936F937F93E2
:101CB0008F939F93AF93BF93CF93DF93EF93FF9354
:101CC000209184003091850041E040937201809121
:101CD0004B018823A9F11092850010928400409353
:101CE00081001092A30110924B0180918F018823F3
:101CF000A1F080917A0086FDFCCF809178009091D0
:101D0000790090936D0180936C0181E080937C0059
:101D100093EA90937A0080937B00FF91EF91DF919B
:101D2000CF91BF91AF919F918F917F916F915F9173
:101D30004F913F912F910F900FBE0F901F901895CC
:101D4000C901875891098437994008F052C0265834
:101D50003109A4EFB0E00E942D11AA27BB278830DB
:101D60009105A105B10508F47BC040934B0180911A
:101D70008F01811152C080916901E82FF0E0EB568C
:101D8000FE4F9091A30190838F5F809369018C3007
:101D900021F61092810010928500109284004093E9
:101DA0008F0110927201C0919F01D091A00185E92D
:101DB00091E00E945710C817D90709F0AECF809163
:101DC0009E0187FF61C098E7980F933030F05398D9
:101DD00023981092B4001092B30090E0FC01E058F8
:101DE000F109EB30F10508F098CFE55CFF4F0C945A
:101DF0002711109281001092850010928400409368
:101E00004B0140938F011092720110927C0083EA83
:101E100080937A0040937B0080CF80917A0086FD8A
:101E2000FCCF809178009091790090936B01809322
:101E30006A0110927C0083EA80937A0081E08093AB
:101E40007B009091A3019923D1F010928100109210
:101E500085001092840080938F01109272015DCFF3
:101E600021E030E0F90102C0EE0FFF1F8A95E2F792
:101E7000CF019091A301892B8093A3014ECF1092A3
:101E80008F011092690149CFE0910501F09106019F
:101E90006AE671E085E991E009953FCF809195016F
:101EA000823009F4DDC008F4BAC0833009F4C6C03A
:101EB000843009F0B1C080913C0190919B01833046
:101EC00009F4E3C080919A0110923D0123E0209330
:101ED0003C018093A6019093A70180913E0186303A
:101EE00009F41BCF539A239A1092B4001092B300B6
:101EF00086E080933E0111CF80913E01863099F0BB
:101F0000539A239A1092B4001092B30055985498A3
:101F10003B983A983D983C9810923C0110923D01B4
:101F200086E080933E0181E090E09C010090950165
:101F300002C0220F331F0A94E2F78091A40190910E
:101F4000A50182239323892B09F086C010923C01BE
:101F5000E4CE81E080933E01E0CEE0E0F0E0099540
:101F600080916E008D7F80936E0016BCE0E0F0E7FC
:101F7000099510923E01D1CE82E080933E01CDCEF4
:101F800085E080933E01C9CE80913E01833009F403
:101F9000C4CE80913E01843009F4BFCE539A239A77
:101FA0001092B4001092B30083E080933E01B5CE4E
:101FB00080913E01863009F0B0CE6091A40180EBA3
:101FC00090E00E9477166091A50181EB90E00E945D
:101FD00077166091A80185E090E00E9477166091E5
:101FE000940189E090E00E9477166091A6018CE050
:101FF00090E00E9477166091A70184E190E00E9432
:102000007716539823981092B4001092B30081E091
:1020100080933E018091950181115FCF7ECE882310
:1020200039F28130C9F78091960190919701909390
:10203000A5018093A40110923C014FCF80913C01F7
:10204000823071F18091990110923D0192E090935C
:102050003C018093940141CF81E080933C015DCEAF
:1020600080913C01813051F08091980110923D01A6
:1020700091E090933C018093A8012FCF809198012B
:102080009091A8018913F2CF28CF8091A7019813CE
:1020900019CF80919A012091A601821315CF1DCFEF
:1020A00080919901909194018913CECF16CFFC01B4
:1020B000AC01465F5F4F8FEF9FEF21918227082E83
:1020C0008295807F8025092E982F82958F70082613
:1020D000869598278927880F880F880F8025E41711
:1020E000F50759F708950FB6F894A4B12091680147
:1020F0002A2B24B921E030916801203029F000001A
:1021000025B1232B25B904C000000000000000C049
:10211000000000000000309525B1232325B92EEAE8
:102120002A95F1F72BEE30B735FF0AC0A4B93091EC
:102130006801309525B1232325B90FBE80E00895AD
:1021400000002A9581F721E030916801203029F0C4
:10215000000025B1232B25B904C0000000000000B9
:1021600000C0000000000000309525B1232325B9F0
:10217000000024E52A95F1F7FC018CE0619170E004
:10218000660F771F616072609AE041E050E09A014B
:1021900026233723232B30916801203029F00000BB
:1021A00025B1232B25B904C000000000000000C0A9
:1021B000000000000000309525B1232325B9000060
:1021C00021E52A95F1F7440F551F9A9501F78A9555
:1021D000A9F620B7206120BFA4B9309168013095DD
:1021E00025B1232325B90FBE81E008950E948707FA
:1021F00086EF90E0909306018093050189EE90E0D0
:10220000909304018093030183EF90E09093020187
:102210008093010166EC71E089E991E00E948308F6
:1022200080E090E0089597FB072E16F4009407D005
:1022300077FD09D00E943C1107FC05D03EF4909533
:1022400081959F4F0895709561957F4F0895EE0F8A
:10225000FF1F0590F491E02D0994A29FB001B39F58
:10226000C001A39F700D811D1124911DB29F700D9F
:10227000811D1124911D0895AA1BBB1B51E107C0AC
:10228000AA1FBB1FA617B70710F0A61BB70B881F06
:10229000991F5A95A9F780959095BC01CD01089595
:1022A0005058BB27AA270E9468110C9468130E94FB
:1022B0002F1338F00E94361320F039F49F3F19F4A1
:1022C00026F40C9405130EF4E095E7FB0C94FF1232
:1022D000E92F0E948D1358F3BA176207730784071A
:1022E000950720F079F4A6F50C94AF130EF4E09561
:1022F0000B2EBA2FA02D0B01B90190010C01CA01C0
:10230000A0011124FF27591B99F0593F50F4503E6A
:1023100068F11A16F040A22F232F342F4427585F5C
:10232000F3CF469537952795A795F0405395C9F774
:102330007EF41F16BA0B620B730B840BBAF091502C
:10234000A1F0FF0FBB1F661F771F881FC2F70EC0CB
:10235000BA0F621F731F841F48F48795779567959E
:10236000B795F7959E3F08F0B0CF9395880F08F08A
:102370009927EE0F979587950895DF93DD27B92F5D
:10238000BF7740E85FE31616170648075B0718F4A7
:10239000D92F0E94B6139F938F937F936F930E94C0
:1023A0001915ECE8F0E00E9408130E9468132F91C1
:1023B0003F914F915F910E942114DD2351F090587D
:1023C000A2EA2AED3FE049EC5FE3D0785D270E9466
:1023D0006811DF910C9468130E94DB1208F481E00D
:1023E00008950E943F13E3950C9479130E940A12FA
:1023F0000C9468130E94361358F00E942F1340F07B
:1024000029F45F3F29F00C94FF1251110C94B01382
:102410000C9405130E948D1368F39923B1F355238F
:1024200091F3951B550BBB27AA27621773078407E7
:1024300038F09F5F5F4F220F331F441FAA1FA9F37D
:1024400035D00E2E3AF0E0E832D091505040E6956B
:10245000001CCAF72BD0FE2F29D0660F771F881FCC
:10246000BB1F261737074807AB07B0E809F0BB0BBF
:10247000802DBF01FF2793585F4F3AF09E3F5105D3
:1024800078F00C94FF120C94B0135F3FE4F3983E85
:10249000D4F3869577956795B795F7959F5FC9F7BC
:1024A000880F911D9695879597F90895E1E0660F3D
:1024B000771F881FBB1F621773078407BA0720F0B6
:1024C000621B730B840BBA0BEE1F88F7E09508951F
:1024D0000E946F126894B1110C94B01308950E9479
:1024E000951388F09F5798F0B92F9927B751B0F0FE
:1024F000E1F0660F771F881F991F1AF0BA95C9F788
:1025000014C0B13091F00E94AF13B1E008950C9463
:10251000AF13672F782F8827B85F39F0B93FCCF316
:10252000869577956795B395D9F73EF49095809504
:10253000709561957F4F8F4F9F4F0895E89409C024
:1025400097FB3EF490958095709561957F4F8F4FE6
:102550009F4F9923A9F0F92F96E9BB279395F695FC
:10256000879577956795B795F111F8CFFAF4BB0F7A
:1025700011F460FF1BC06F5F7F4F8F4F9F4F16C0DE
:10258000882311F096E911C0772321F09EE8872F68
:10259000762F05C0662371F096E8862F70E060E024
:1025A0002AF09A95660F771F881FDAF7880F96959D
:1025B000879597F90895990F0008550FAA0BE0E841
:1025C000FEEF16161706E807F907C0F012161306F5
:1025D000E407F50798F0621B730B840B950B39F435
:1025E0000A2661F0232B242B252B21F408950A269B
:1025F00009F4A140A6958FEF811D811D089597F9DB
:102600009F6780E870E060E008959FEF80EC089598
:10261000DF93CF931F930F93FF92EF92DF927B0193
:102620008C01689406C0DA2EEF010E942114FE018D
:10263000E894A5912591359145915591A6F3EF0127
:102640000E946811FE019701A801DA9469F7DF90F2
:10265000EF90FF900F911F91CF91DF91089500248B
:102660000A941616170618060906089500240A94F7
:10267000121613061406050608950C9405130E94FD
:102680009513D8F3E894E0E0BB279F57F0F02AEDCC
:102690003FE049EC06C0EE0FBB0F661F771F881F97
:1026A00028F0B23A62077307840728F0B25A620B27
:1026B000730B840BE3959A9572F7803830F49A95F2
:1026C000BB0F661F771F881FD2F790480C947E15AA
:1026D000092E0394000C11F4882352F0BB0F40F430
:1026E000BF2B11F460FF04C06F5F7F4F8F4F9F4F70
:1026F0000895EF93E0FF07C0A2EA2AED3FE049EC1E
:102700005FEB0E9468110E9468130F90039401FC14
:102710009058E9EBF0E00C94911557FD9058440F58
:10272000551F59F05F3F71F04795880F97FB991F30
:1027300061F09F3F79F087950895121613061406ED
:10274000551FF2CF4695F1DF08C01616170618067A
:10275000991FF1CF86957105610508940895E89455
:10276000BB2766277727CB0197F908959B01AC011A
:1027700060E070E080E89FE30C94F61116F00C9492
:102780007C150C94051368940C94FF120E94951309
:10279000A8F39923C1F3AEF3DF93CF931F930F9365
:1027A000FF92C92FDD2788232AF02197660F771F14
:1027B000881FDAF720E030E040E85FEB9FE38839DC
:1027C00020F0803E38F021968F770E945111E7ED7E
:1027D000F0E004C00E945111E4E0F1E00E9408130F
:1027E0008B01BE01EC01FB2E6F5771097595771FA8
:1027F000880B990B0E94A01228E132E741E35FE3C6
:102800000E942114AF2D9801AE01FF900F911F91EE
:10281000CF91DF910E9468110C9468130E942114DB
:102820000C9468130E942F1338F00E94361320F086
:10283000952311F00C94FF120C94051311240C94A1
:10284000B0130E948D1370F3959FC1F3950F50E064
:10285000551F629FF001729FBB27F00DB11D639F52
:10286000AA27F00DB11DAA1F649F6627B00DA11DF8
:10287000661F829F2227B00DA11D621F739FB00D9E
:10288000A11D621F839FA00D611D221F749F33270E
:10289000A00D611D231F849F600D211D822F762FA7
:1028A0006A2F11249F5750409AF0F1F088234AF084
:1028B000EE0FFF1FBB1F661F771F881F91505040F0
:1028C000A9F79E3F510580F00C94FF120C94B013B1
:1028D0005F3FE4F3983ED4F3869577956795B79577
:1028E000F795E7959F5FC1F7FE2B880F911D969591
:1028F000879597F90895FA01EE0FFF1F309621058D
:102900003105A1F16115710561F48038BFE39B07C2
:1029100049F168949038810561F08038BFEF9B07DA
:1029200041F099234AF5FF3FE1053105210519F1F1
:10293000E8940894E795D901AA2329F4AB2FBE2F78
:10294000F85FD0F310C0FF5F70F4A695E0F7F73999
:1029500050F019F0FF3A38F49F779F930DD00F9005
:1029600007FC9058089546F00C94051360E070E061
:1029700080E89FE308954FE79F775F934F933F93DE
:102980002F930E94C6132F913F914F915F910E9408
:102990000E140C944A159F930E943F130F9007FC4E
:1029A000EE5F0C94791319F416F40C9405130C943F
:1029B0007C150E949513B8F39923C9F3B6F39F577A
:1029C000550B87FF0E948A150024A0E640EA90017B
:1029D00080585695979528F4805C660F771F881F5E
:1029E00020F026173707480730F4621B730B840B5F
:1029F000202931294A2BA6951794079420253125A3
:102A00004A2758F7660F771F881F20F026173707C9
:102A1000480730F4620B730B840B200D311D411DF0
:102A2000A09581F7B901842F9158880F96958795C5
:102A300008959B01AC010C940E14DF93D92F0E94D2
:102A40003F13E695D7952AED3FE049E45FE3B33ABB
:102A50006207730784079507D7953AF0A2EA49EC15
:102A600090680E9468110E946813E1E3F1E00E94FF
:102A70009115DD0F13F00E94B613DD0F0BF4905883
:102A8000DF91089529F416F00C94FF120C94AF1303
:102A90000C9405130E949513A8F39638A0F707F835
:102AA0000F92E8942BE33AEA48EB5FE70E94241484
:102AB0000F920F920F924DB75EB70F920E94DF15E3
:102AC000E4E5F1E00E9408134F915F91EF91FF91CF
:102AD000E595EE1FFF1F49F0FE57E0684427EE0F13
:102AE000441FFA95E1F74195550B0E94A9150F90E7
:102AF00007FE0C94B61308959F3F31F0915020F4D7
:102B0000879577956795B795880F911D96958795C9
:102B100097F9089591505040660F771F881FD2F79C
:102B200008959F938F937F936F93FF93EF939B01F0
:102B3000AC010E940E14EF91FF910E9408132F9197
:102B40003F914F915F910C940E140C94FF120C94D2
:102B50007C150E949513D8F39923C9F3940F511D46
:102B6000A3F39150504094F059F0882332F0660F4F
:102B7000771F881F91505040C1F79E3F51052CF799
:102B8000880F911D9695879597F908955F3FACF052
:102B9000983E9CF0BB27869577956795B79508F486
:102BA000B1609395C1F7BB0F58F711F460FFE8CF00
:102BB0006F5F7F4F8F4F9F4FE3CF0C94B013FA019D
:102BC000DC01AA0FBB1F9B01AC01BF5728F42227D1
:102BD00033274427507820C0B75190F4AB2F0024FE
:102BE000469537952795011CA395D2F3002071F0E7
:102BF000220F331F441FB395DAF30ED00C945011FB
:102C000061307105A0E88A07B94630F49B01AC0138
:102C10006627772788279078309621F020833183A4
:102C20004283538308958F929F92AF92BF92CF9227
:102C3000DF92EF92FF92CF93DF93EC01688179816D
:102C40008A819B81611571058105910521F464E2FA
:102C500079ED8BE597E02DE133EF41E050E00E9404
:102C6000851649015A019B01AC01A7EAB1E40E9413
:102C7000A4166B017C01ACEEB4EFA50194010E9497
:102C8000B216DC01CB018C0D9D1DAE1DBF1DB7FF23
:102C900003C00197A109B04888839983AA83BB83A5
:102CA0009F77DF91CF91FF90EF90DF90CF90BF9013
:102CB000AF909F908F9008950E941316089587E01B
:102CC00091E00E9413160895A0E0B0E08093070100
:102CD00090930801A0930901B0930A010895F9990E
:102CE000FECF92BD81BDF89A992780B50895262F11
:102CF000F999FECF1FBA92BD81BD20BD0FB6F894E1
:102D0000FA9AF99A0FBE01960895052E97FB1EF4C4
:102D100000940E949C1657FD07D00E94B71607FC2E
:102D200003D04EF40C949C16509540953095219507
:102D30003F4F4F4F5F4F08959095809570956195E7
:102D40007F4F8F4F9F4F08950E942D11A59F900D8B
:102D5000B49F900DA49F800D911D11240895B7FF7D
:102D60000C94A4160E94A416821B930B0895A1E252
:102D70001A2EAA1BBB1BFD010DC0AA1FBB1FEE1FF5
:102D8000FF1FA217B307E407F50720F0A21BB30B40
:102D9000E40BF50B661F771F881F991F1A9469F7BC
:102DA00060957095809590959B01AC01BD01CF0118
:062DB0000895F894FFCF26
:102DB600AA86078307820701000000700020A00092
:0C2DC60000A042000000406666663F006E
:00000001FF
