:100000000C9446000C946F000C946F000C946F00DD
:100010000C946F000C946F000C94EA010C946F0028
:100020000C946F000C946F000C946F000C94A90753
:100030000C946F000C946F000C9409070C946F00E3
:100040000C946F000C946F000C946F000C946F0074
:100050000C946F000C946F000C946F000C94CB0701
:100060000C946F000C946F005002CC0224021B020F
:100070002102AE02A3022E090B080B082B09370937
:1000800027093E093A094209FA08CC0811241FBE83
:10009000CFEFD8E0DEBFCDBF14BE0FB6F894A89561
:1000A00080916000886180936000109260000FBEB4
:1000B00011E0A0E0B1E0E0E4FBE102C005900D92A8
:1000C000AC30B107D9F721E0ACE0B1E001C01D923E
:1000D000AF37B207E1F70E94740A0C949E0D0C949E
:1000E000000080911001882319F085E191E00895C6
:1000F00080E090E00895109210010895CF93DF936F
:10010000C5E1D1E018821986CE010E94D5099B87EE
:100110008A87DF91CF91089580911001811118C0D5
:100120004091440150914501609146017091470111
:1001300080910C0190910D01A0910E01B0910F01E1
:100140008096A11DB11D84179507A607B70708F073
:1001500008958091440190914501A0914601B0918C
:10016000470180930C0190930D01A0930E01B09371
:100170000F0181E08093100181E10E94850784E6F0
:1001800090E00E94590380E00C9485078091100153
:10019000811118C040914401509145016091460180
:1001A0007091470180910C0190910D01A0910E0179
:1001B000B0910F018096A11DB11D84179507A60768
:1001C000B70708F008958091440190914501A091EE
:1001D0004601B091470180930C0190930D01A093CB
:1001E0000E01B0930F0181E08093100181E10E9424
:1001F000850784E690E00E94590380E00C9485070F
:10020000089580E090E008950895DF92EF92FF92C4
:100210000F931F93CF93DF93F89414B817B81AB8BD
:1002200015B818B81BB8529A5A9A14BC85E085BD07
:100230008FEF87BD82E080936E0010928000109255
:1002400081002FE83BE03093890020938800809361
:100250006F005398239891EA9093B0008093B10077
:100260001092B4001092B3008BE080BF83E08093C3
:100270007F0086E080937C0083E880937A00809101
:100280007A00806480937A0080917A0086FDFCCFAA
:1002900010927C0083EA80937A0081E080937B0057
:1002A00081E090E00E94340D8F3F11F08093660052
:1002B00010924801C1E0C0932101C09365011092E2
:1002C0003F011092790180E990E00E94340D809303
:1002D0003E0180913E01887311F0C0933E0110925F
:1002E0006901109268018FEF90E09093670180930D
:1002F000660110924401109245011092460110923D
:10030000470181E08093140182E49FE0909378019B
:100310008093770180EB90E00E94340DC82F81EB31
:1003200090E00E94340D2C2F30E0382B30937B016D
:1003300020937A0185E090E00E94340D80937E0145
:1003400089E090E00E94340D80936A018CE090E097
:100350000E94340D80937C0184E190E00E94340D72
:1003600080937D0159E4E52E51E0F52E02E211E083
:10037000C0E2D0E0CE010E94340DD82ECE0101960D
:100380000E94340D2D2D30E0322F2227282BF7012B
:10039000219331937F01CE01C0960E94340DD82E57
:1003A000CE01C1960E94340D2D2D30E0322F222730
:1003B000282BF801219331938F012296CC33D1055C
:1003C000C9F67894DF91CF911F910F91FF90EF9034
:1003D000DF9008951F920F920FB60F9211248F9302
:1003E0000FB6F894A89580916000886180936000B2
:1003F000109260000FBE8F910F900FBE0F901F9054
:1004000018953C01EB0110E099249A9484E0C82EE1
:1004100096E0A92E23E8B22E38E1D32E49E2E42E4D
:1004200090911401E92FF0E0E730F105C8F7EC5C9A
:10043000FF4F0C949F0A112309F4FCC0C0921401D1
:1004400011E0FE010995ECCF809148018111EBC0CC
:10045000F894A0927C00B0927A0080917A00806437
:1004600080937A0090917A0096FDFCCF809178007D
:100470009091790078948B3AE2E09E070CF0EDC001
:100480008938F2E09F070CF0EFC0873692400CF4F9
:10049000CAC0559A549A3B9A3A9A3D983C98C0CF14
:1004A000F89480B7877F80BF80917A008F778093A0
:1004B0007A0014B817B81AB815B818B81BB80FB620
:1004C000F894A895D09260000FBEE09260008091F1
:1004D000600080648093600093B7917F946093BFC5
:1004E000F89483B7816083BF7894889583B78E7FB3
:1004F00083BF789410924801529A5A9A80917A0058
:10050000806880937A0087E592E00197F1F700C058
:10051000000080B7886180BF559A549A3B9A3A9AF6
:100520003D9A3C9AEFE1FEE43197F1F700C00000FC
:1005300080914801811181C0559854983B983A9810
:100540003D983C986DCF80911201811141C010926D
:10055000B3001092B4001092130162CF4899ECCF0F
:10056000559A54983B983A983D983C988FEC97E070
:100570000197F1F700C00000559854983B983A98BD
:100580003D983C989FEFE1EEF4E09150E040F04060
:10059000E1F700C0000044CF559854983B9A3A9A2E
:1005A0003D983C98EFECF7E03197F1F700C0000080
:1005B000559854983B983A983D983C98FFEF21EE17
:1005C00084E0F15020408040E1F700C0000028CFD7
:1005D0009091120180911301981709F421CF809115
:1005E00012018093130180911201813009F450C0EF
:1005F000809112011092B3009092B4008230D9F130
:100600009092B3009092B4008FE295E70197F1F7D2
:1006100000C0000080917D0190917C019093B30017
:100620008093B400FDCE559A549A3B983A983D98E1
:100630003C98F6CEF301099501CF559A549A3B9810
:100640003A983D983C98FFEF20E782E0F150204037
:100650008040E1F700C000006FCF559854983B9A56
:100660003A9A3D983C98DCCE559854983B983A98E5
:100670003D9A3C9AD5CEEFE2F5E73197F1F700C00D
:10068000000080916A011092B3008093B400C8CE3C
:100690009092B3001092B4008FE295E70197F1F7C2
:1006A00000C0000080917E018093B3001092B400DE
:1006B000B7CE07C0EFECF7E03197F1F700C00000CC
:1006C00001970097B9F708958093B3006093B40041
:1006D00008958FEF8093B3008093B4008FE090E093
:1006E000EFECF7E03197F1F700C000000197C1F798
:1006F00008958091480181111EC0F89487E080938D
:100700007C0083E880937A0080917A0080648093F3
:100710007A0080917A0086FDFCCF809178009091DC
:10072000790010927C0023EA20937A0021E0209344
:100730007B00789408958FEF9FEF08958091480192
:1007400081111EC0F89488EC80937C0087E8809328
:100750007A0080917A00806480937A0080917A0098
:1007600086FDFCCF809178009091790010927C00FA
:1007700023EA20937A0021E020937B007894089567
:100780008FEF9FEF08950F931F93CF93DF93E0E0D8
:10079000F0E080E003EA11E0D6E0C3E8A1E0B0E0D9
:1007A00060E870E0F894D0937C00C0937A00909158
:1007B0007A00906490937A0090917A0096FDFCCF35
:1007C0002091780030917900217090917A009064A6
:1007D00090937A0090917A0096FDFCCF409178003A
:1007E0005091790010927C0000937A0010937B0066
:1007F00078944170241303C06150710999F6222343
:1008000039F09D010E2E01C0220F0A94EAF7822BC7
:100810003196E830F10509F0C3CFDF91CF911F91F8
:100820000F91089580910001982F990F990F990FBA
:1008300089279091110121E0290F20931101282F80
:1008400022952695277082279695969589278093DD
:10085000000108958093000108958091480181115D
:1008600016C0F89486E080937C0083E880937A0039
:1008700080917A00806480937A0080917A0086FD6E
:10088000FCCF8091780090917900789408958FEF53
:100890009FEF08952F923F924F925F926F927F92B7
:1008A0008F929F92AF92BF92CF92DF92EF92FF9280
:1008B0000F931F93CF93DF9300D000D000D0CDB71C
:1008C000DEB71C01DC0112960D90BC91A02DBE83F9
:1008D000AD83A438E3E0BE070CF0C9C080912201CB
:1008E000909123018A179B0708F437C100912401D6
:1008F000109125010A171B0708F42FC20091260149
:10090000109127010A171B0708F42FC20091280134
:10091000109129010A171B0708F42FC200912A0120
:1009200010912B010A171B0708F42FC200912C010C
:1009300010912D010A171B0708F4EFC100912E0139
:1009400010912F010A171B0708F427C200913001EC
:10095000109131010A171B0708F427C200913201D8
:10096000109133010A171B0708F427C200913401C4
:10097000109135010A171B0708F427C200913601B0
:10098000109137010A171B0708F427C2009138019C
:10099000109139010A171B0708F423C200913A018C
:1009A00010913B010A171B0708F423C200913C0178
:1009B00010913D010A171B0708F423C280E090E064
:1009C000A0EDB0E489839A83AB83BC834CE0E42E32
:1009D000F12CF701EE0FFF1FEE5DFE4F808191813C
:1009E000B801681B790B80E090E00E94DD0B9B0151
:1009F000AC010E94C90A6B017C01AD81BE81BD01C1
:100A0000BB0F880B990B0E94DF0B4B015C01B801F7
:100A100080E090E00E94DD0B2B013C0129813A81AE
:100A20004B815C81C701B6010E946B0C9B01AC013C
:100A3000C301B2010E94C80A9B01AC01C501B40107
:100A40000E94C80A20E030E040E251E40E946B0CB2
:100A50000E94A70B8B01C701B6010E94A70BAB0137
:100A6000BC01C801BA010E948B0A162F77C0DC01B5
:100A7000CD90DC908091490190914A018C159D05A3
:100A800008F48CC01FEFE0904B01F0904C01EC1487
:100A9000FD0408F45EC1E0904D01F0904E01EC14AD
:100AA000FD0408F45EC1E0904F01F0905001EC1499
:100AB000FD0408F45EC1E0905101F0905201EC1485
:100AC000FD0408F45EC1E0905301F0905401EC1471
:100AD000FD0408F4C3C0E0905501F0905601EC14F9
:100AE000FD0408F456C1E0905701F0905801EC1451
:100AF000FD0408F456C1E0905901F0905A01EC143D
:100B0000FD0408F456C1E0905B01F0905C01EC1428
:100B1000FD0408F456C1E0905D01F0905E01EC1414
:100B2000FD0408F456C1E0905F01F0906001EC1400
:100B3000FD0408F45AC1E0906101F0906201EC14E8
:100B4000FD0408F45AC1E0906301F0906401EC14D4
:100B5000FD0408F45AC10AE531C010E0ED81FE81C0
:100B6000ED3BF240FCF481E2810F26960FB6F8943B
:100B7000DEBF0FBECDBFDF91CF911F910F91FF90D0
:100B8000EF90DF90CF90BF90AF909F908F907F902D
:100B90006F905F904F903F902F90089500E081E21A
:100BA000800FE3CFD101CD90DC90809149019091ED
:100BB0004A018C159D0508F066CF00E01F3F79F3D0
:100BC000ED81FE81BF01FF0F880B990B0E94DF0BA7
:100BD0006B017C01612F70E080E090E00E94DD0BF2
:100BE0004B015C01A701960160E070E081E694E4AE
:100BF0000E94C80A9B01AC01C501B4010E946B0CA4
:100C00004B015C01602F70E080E090E00E94DD0B02
:100C10002B013C0120E030E04FE254E4C701B60173
:100C20000E94C80A9B01AC01C301B2010E946B0C77
:100C30009B01AC01C501B4010E94C90A20E030E06B
:100C400048E453E40E94350B20E030E044E052E4F5
:100C50000E94C90A0E94AE0B862F87CF05E085E06F
:100C600090E0880F991FFC01E95BFE4F8081918124
:100C7000B701681B790B80E090E00E94DD0B9B01BF
:100C8000AC010E94C90A4B015C01B601DD0C880B66
:100C9000990B0E94DF0B2B013C01B70180E090E033
:100CA0000E94DD0B6B017C01602F70E080E090E022
:100CB0000E94DD0B20E030E040E05FE30E946B0C1F
:100CC00020E030E0A9010E94C90AA50194010E9418
:100CD0006B0C9B01AC01C701B6010E94C80A9B01C5
:100CE000AC01C301B2010E94C80A20E030E040E23A
:100CF00051E40E946B0C0E94A70B7B01C501B4015B
:100D00000E94A70BAB01BC01C701BA010E948B0A6C
:100D1000062F6F3F09F052CF26CF65E085E090E0C7
:100D20007C01F1E0EF1AF10870E080E090E00E94B1
:100D3000DD0B20E030E040E05FE30E946B0C20E040
:100D400030E0A9010E94C90A69837A838B839C835E
:100D500040CE01E081E090E084CF61E081E090E06E
:100D6000DFCF02E082E090E07CCF62E082E090E0C2
:100D7000D7CF03E083E090E074CF63E083E090E0BE
:100D8000CFCF04E084E090E06CCF64E084E090E0BA
:100D9000C7CF06E086E090E064CF66E086E090E0B2
:100DA000BFCF07E087E090E05CCF67E087E090E0AE
:100DB000B7CF08E088E090E054CF68E088E090E0AA
:100DC000AFCF09E089E090E04CCF69E089E090E0A6
:100DD000A7CF0AE08AE090E044CF6AE08AE090E0A2
:100DE0009FCF6BE08BE090E09BCF0BE08BE090E03F
:100DF00038CF6CE08CE090E093CF0CE08CE090E09A
:100E000030CF6DE08DE090E08BCF0DE08DE090E095
:100E100028CF1F920F920FB60F9211242F933F935A
:100E20004F935F936F937F938F939F93AF93BF93F2
:100E3000EF93FF93209168013091690180916601E1
:100E400090916701820F931F9093690180936801CD
:100E50008FEF90E090936701809366018FEF87BDDD
:100E60008091440190914501A0914601B0914701C4
:100E70000196A11DB11D8093440190934501A0935B
:100E80004601B09347018091480181110FC08091C4
:100E90007701909178012091680130916901821762
:100EA000930720F480911401843089F0FF91EF9131
:100EB000BF91AF919F918F917F916F915F914F9172
:100EC0003F912F910F900FBE0F901F901895E091BA
:100ED0000301F09104010995009741F30E94F10983
:100EE000811109C00E94240D992790936701809376
:100EF000660187BDDBCFE0910101F0910201099508
:100F00001092690110926801D1CF80FF11C0559AEB
:100F100081FF11C0549A82FF11C03B9A83FF11C018
:100F20003A9A84FF11C03D9A85FD11C03C980895FE
:100F3000559881FDEFCF549882FDEFCF3B9883FD0C
:100F4000EFCF3A9884FDEFCF3D9885FFEFCF3C9AE5
:100F500008951F920F920FB60F9211248F939F93B3
:100F600010928100109285001092840081E080939D
:100F70002101809365011092480110927C0093EA50
:100F800090937A0080937B009F918F910F900FBE7A
:100F90000F901F9018951F920F920FB60F92112469
:100FA0002F933F934F935F936F937F938F939F9371
:100FB000AF93BF93CF93DF93EF93FF932091840080
:100FC0003091850041E040934801809121018823C0
:100FD000A9F1109285001092840040938100109234
:100FE000790110922101809165018823A1F08091FF
:100FF0007A0086FDFCCF80917800909179009093E3
:1010000043018093420181E080937C0093EA9093B6
:101010007A0080937B00FF91EF91DF91CF91BF9198
:10102000AF919F918F917F916F915F914F913F9180
:101030002F910F900FBE0F901F901895C9018758E0
:1010400091098437994008F052C026583109A4EF1D
:10105000B0E00E94A50AAA27BB2788309105A10508
:10106000B10508F47BC04093210180916501811195
:1010700052C080913F01E82FF0E0E559FE4F90917A
:10108000790190838F5F80933F018C3021F610921D
:1010900081001092850010928400409365011092A7
:1010A0004801C0917501D09176018BE691E00E94D4
:1010B000D509C817D90709F0AECF8091740187FF11
:1010C00061C098E7980F933030F0539823981092AE
:1010D000B4001092B30090E0FC01E058F109EB304D
:1010E000F10508F098CFE55CFF4F0C949F0A109231
:1010F000810010928500109284004093210140935A
:1011000065011092480110927C0083EA80937A0076
:1011100040937B0080CF80917A0086FDFCCF809148
:101120007800909179009093410180934001109252
:101130007C0083EA80937A0081E080937B00909129
:1011400079019923D1F010928100109285001092BC
:10115000840080936501109248015DCF21E030E06A
:10116000F90102C0EE0FFF1F8A95E2F7CF019091BF
:101170007901892B809379014ECF109265011092ED
:101180003F0149CFE0910501F091060160E471E073
:101190008BE691E009953FCF80916B01823009F495
:1011A000DDC008F4BAC0833009F4C6C0843009F049
:1011B000B1C08091120190917101833009F4E3C0B4
:1011C000809170011092130123E02093120180930B
:1011D0007C0190937D0180911401863009F41BCF2E
:1011E000539A239A1092B4001092B30086E0809331
:1011F000140111CF80911401863099F0539A239AEB
:101200001092B4001092B300559854983B983A98B5
:101210003D983C98109212011092130186E0809341
:10122000140181E090E09C0100906B0102C0220F4C
:10123000331F0A94E2F780917A0190917B01822317
:101240009323892B09F086C010921201E4CE81E02D
:1012500080931401E0CEE0E0F0E0099580916E000B
:101260008D7F80936E0016BCE0E0F0E70995109248
:101270001401D1CE82E080931401CDCE85E080931D
:101280001401C9CE80911401833009F4C4CE809139
:101290001401843009F4BFCE539A239A1092B400FB
:1012A0001092B30083E080931401B5CE80911401B5
:1012B000863009F0B0CE60917A0180EB90E00E9418
:1012C0003C0D60917B0181EB90E00E943C0D6091B0
:1012D0007E0185E090E00E943C0D60916A0189E00A
:1012E00090E00E943C0D60917C018CE090E00E94B7
:1012F0003C0D60917D0184E190E00E943C0D53988B
:1013000023981092B4001092B30081E080931401EE
:1013100080916B0181115FCF7ECE882339F28130BD
:10132000C9F780916C0190916D0190937B0180933E
:101330007A01109212014FCF80911201823071F127
:1013400080916F011092130192E0909312018093AB
:101350006A0141CF81E0809312015DCE809112013C
:10136000813051F080916E011092130191E09093C1
:10137000120180937E012FCF80916E0190917E01AA
:101380008913F2CF28CF80917D01981319CF8091D6
:10139000700120917C01821315CF1DCF80916F01C8
:1013A00090916A018913CECF16CFFC01AC01465F44
:1013B0005F4F8FEF9FEF21918227082E8295807FCC
:1013C0008025092E982F82958F700826869598275C
:1013D0008927880F880F880F8025E417F50759F7AC
:1013E00008950FB6F894A4B120913E012A2B24B998
:1013F00021E030913E01203029F0000025B1232B5F
:1014000025B904C000000000000000C0000000007A
:101410000000309525B1232325B92EEA2A95F1F74E
:101420002BEE30B735FF0AC0A4B930913E0130959C
:1014300025B1232325B90FBE80E0089500002A9529
:1014400081F721E030913E01203029F0000025B1E4
:10145000232B25B904C000000000000000C00000DC
:1014600000000000309525B1232325B9000024E5B4
:101470002A95F1F7FC018CE0619170E0660F771F0F
:10148000616072609AE041E050E09A0126233723C0
:10149000232B30913E01203029F0000025B1232B71
:1014A00025B904C000000000000000C000000000DA
:1014B0000000309525B1232325B9000021E52A95A8
:1014C000F1F7440F551F9A9501F78A95A9F620B7B1
:1014D000206120BFA4B930913E01309525B123236E
:1014E00025B90FBE81E008950E94050181E790E0D3
:1014F00090930401809303018BE790E090930201A5
:10150000809301016CE870E08EE790E00E94010298
:1015100080E090E0089597FB072E16F4009407D022
:1015200077FD09D00E94B40A07FC05D03EF49095DF
:1015300081959F4F0895709561957F4F0895EE0FA7
:10154000FF1F0590F491E02D0994A29FB001B39F75
:10155000C001A39F700D811D1124911DB29F700DBC
:10156000811D1124911D0895AA1BBB1B51E107C0C9
:10157000AA1FBB1FA617B70710F0A61BB70B881F23
:10158000991F5A95A9F780959095BC01CD010895B2
:101590005058BB27AA270E94E00A0C94310C0E94E5
:1015A000230C38F00E942A0C20F039F49F3F19F4E4
:1015B00026F40C94200C0EF4E095E7FB0C941A0C26
:1015C000E92F0E94420C58F3BA1762077307840789
:1015D000950720F079F4A6F50C94640C0EF4E095D0
:1015E0000B2EBA2FA02D0B01B90190010C01CA01DD
:1015F000A0011124FF27591B99F0593F50F4503E88
:1016000068F11A16F040A22F232F342F4427585F79
:10161000F3CF469537952795A795F0405395C9F791
:101620007EF41F16BA0B620B730B840BBAF0915049
:10163000A1F0FF0FBB1F661F771F881FC2F70EC0E8
:10164000BA0F621F731F841F48F4879577956795BB
:10165000B795F7959E3F08F0B0CF9395880F08F0A7
:101660009927EE0F9795879508950E94490B0C9442
:10167000310C0E942A0C58F00E94230C40F029F4EF
:101680005F3F29F00C941A0C51110C94650C0C94CA
:10169000200C0E94420C68F39923B1F3552391F377
:1016A000951B550BBB27AA2762177307840738F0D1
:1016B0009F5F5F4F220F331F441FAA1FA9F335D02E
:1016C0000E2E3AF0E0E832D091505040E695001CE2
:1016D000CAF72BD0FE2F29D0660F771F881FBB1F9C
:1016E000261737074807AB07B0E809F0BB0B802D7A
:1016F000BF01FF2793585F4F3AF09E3F510578F0A6
:101700000C941A0C0C94650C5F3FE4F3983ED4F3F0
:10171000869577956795B795F7959F5FC9F7880F79
:10172000911D9695879597F90895E1E0660F771FCB
:10173000881FBB1F621773078407BA0720F0621B5C
:10174000730B840BBA0BEE1F88F7E09508950E9487
:10175000AE0B6894B1110C94650C08950E944A0C6C
:1017600088F09F5798F0B92F9927B751B0F0E1F062
:10177000660F771F881F991F1AF0BA95C9F714C012
:10178000B13091F00E94640CB1E008950C94640CA7
:10179000672F782F8827B85F39F0B93FCCF386954B
:1017A00077956795B395D9F73EF4909580957095A8
:1017B00061957F4F8F4F9F4F0895E89409C097FB25
:1017C0003EF490958095709561957F4F8F4F9F4F18
:1017D0009923A9F0F92F96E9BB279395F69587955C
:1017E00077956795B795F111F8CFFAF4BB0F11F41F
:1017F00060FF1BC06F5F7F4F8F4F9F4F16C08823C6
:1018000011F096E911C0772321F09EE8872F762FFB
:1018100005C0662371F096E8862F70E060E02AF03C
:101820009A95660F771F881FDAF7880F9695879528
:1018300097F9089597F99F6780E870E060E0089550
:101840009FEF80EC089500240A94161617061806D8
:101850000906089500240A941216130614060506B4
:101860000895092E0394000C11F4882352F0BB0F45
:1018700040F4BF2B11F460FF04C06F5F7F4F8F4FA8
:101880009F4F089557FD9058440F551F59F05F3FE3
:1018900071F04795880F97FB991F61F09F3F79F092
:1018A00087950895121613061406551FF2CF469514
:1018B000F1DF08C0161617061806991FF1CF869596
:1018C0007105610508940895E894BB27662777277A
:1018D000CB0197F908950E947E0C0C94310C0E9464
:1018E000230C38F00E942A0C20F0952311F00C9460
:1018F0001A0C0C94200C11240C94650C0E94420CC0
:1019000070F3959FC1F3950F50E0551F629FF00152
:10191000729FBB27F00DB11D639FAA27F00DB11D6B
:10192000AA1F649F6627B00DA11D661F829F2227F4
:10193000B00DA11D621F739FB00DA11D621F839F7B
:10194000A00D611D221F749F3327A00D611D231F51
:10195000849F600D211D822F762F6A2F11249F579F
:1019600050409AF0F1F088234AF0EE0FFF1FBB1FA2
:10197000661F771F881F91505040A9F79E3F510561
:1019800080F00C941A0C0C94650C5F3FE4F3983EC5
:10199000D4F3869577956795B795F795E7959F5F0B
:1019A000C1F7FE2B880F911D9695879597F908959D
:1019B0008F929F92AF92BF92CF92DF92EF92FF925F
:1019C000CF93DF93EC01688179818A819B816115D6
:1019D00071058105910521F464E279ED8BE597E0CD
:1019E0002DE133EF41E050E00E944A0D49015A01D8
:1019F0009B01AC01A7EAB1E40E94690D6B017C0177
:101A0000ACEEB4EFA50194010E94770DDC01CB018F
:101A10008C0D9D1DAE1DBF1DB7FF03C00197A10911
:101A2000B04888839983AA83BB839F77DF91CF9146
:101A3000FF90EF90DF90CF90BF90AF909F908F90EE
:101A400008950E94D80C089587E091E00E94D80C78
:101A50000895A0E0B0E08093070190930801A0935F
:101A60000901B0930A010895F999FECF92BD81BD95
:101A7000F89A992780B50895262FF999FECF1FBAB5
:101A800092BD81BD20BD0FB6F894FA9AF99A0FBEA7
:101A900001960895052E97FB1EF400940E94610D97
:101AA00057FD07D00E947C0D07FC03D04EF40C9428
:101AB000610D50954095309521953F4F4F4F5F4FA9
:101AC000089590958095709561957F4F8F4F9F4FAA
:101AD00008950E94A50AA59F900DB49F900DA49F04
:101AE000800D911D11240895B7FF0C94690D0E947B
:101AF000690D821B930B0895A1E21A2EAA1BBB1B32
:101B0000FD010DC0AA1FBB1FEE1FFF1FA217B307C9
:101B1000E407F50720F0A21BB30BE40BF50B661FDF
:101B2000771F881F991F1A9469F7609570958095A3
:101B300090959B01AC01BD01CF010895F894FFCFB2
:0C1B4000AA0401010100010100000020C6
:00000001FF
