:107000000C9434380C9451380C9451380C945138F9
:107010000C9451380C9451380C9451380C945138CC
:107020000C9451380C9451380C9451380C94B73955
:107030000C9451380C9451380C9492390C9451386A
:107040000C9451380C9451380C9451380C9451389C
:107050000C9451380C9451380C9451380C94D93903
:107060000C9451380C94513811241FBECFEFD8E046
:10707000DEBFCDBF11E0A0E0B1E0E6E5F6E702C07B
:1070800005900D92A630B107D9F721E0A6E0B1E056
:1070900001C01D92A63CB207E1F70E94DC3A0C94B5
:1070A000293B0C940038FC018185813879F08238C5
:1070B000F1F1803809F443C080912301811105C0AA
:1070C00081E085BF15BE0C9400000895F093250162
:1070D000E093240160818091AD01681799F160937C
:1070E000AD01818190E022813381DC01AA0FBB1FB9
:1070F000A75DBE4F2D933C9324813581DC01AA0FFF
:10710000BB1FA55DBE4F2D933C9326813781880F11
:10711000991FFC01E35DFE4F3183208386E090E000
:10712000909328018093270180E10C94933980810A
:107130008093260190912301891711F208950C94F0
:107140000038089520912701309128012A5F3F4F90
:10715000818190E042815381DC01AA0FBB1FA75DB2
:10716000BE4F4D935C9344815581DC01AA0FBB1F38
:10717000A55DBE4F4D935C9346815781880F991F43
:10718000FC01E35DFE4F518340833093280120933F
:1071900027012038310540F2E62FE695E695E69581
:1071A000F0E0EA5FFE4F808190E0262F277002C05A
:1071B000959587952A95E2F780FDB6CFF999FECF90
:1071C00080E8689FB001112483E0FB0180935700A1
:1071D000E89507B600FCFDCFA9E2B1E0AB0149524A
:1071E000514021E0FA01EA0FFB1F8D919D910C01A6
:1071F00020935700E8951124F1E0A93ABF0791F7D1
:1072000085E0FB0180935700E89507B600FCFDCFB1
:1072100081E180935700E8958CE00E94933980913A
:10722000AD01E82FE695E695E695F0E0EA5FFE4FC2
:10723000282F277081E090E001C0880F2A95EAF797
:107240009081892B8083809123018F5F809323011C
:1072500090912601891709F433CF089581E085BF05
:1072600015BE0C9400000895089580E090E0089504
:107270000895F89414B817B81AB815B818B81BB808
:10728000529A5A9A14BC85E085BD8FEF87BD82E083
:1072900080936E0010928000109281002FE83BE0F6
:1072A000309389002093880080936F00539823982F
:1072B00091EA9093B0008093B1001092B4001092C4
:1072C000B3008BE080BF83E080937F0086E08093F3
:1072D0007C0083E880937A0080917A0080648093B8
:1072E0007A0080917A0086FDFCCF10927C0083EAC0
:1072F00080937A0081E080937B0081E090E00E949F
:10730000213B8F3F11F0809366001092B50181E020
:107310008093AE018093B6011092B0011092C50126
:1073200078940895189580FF11C0559A81FF11C077
:10733000549A82FF11C03B9A83FF11C03A9A84FF8E
:1073400011C03D9A85FD11C03C980895559881FD66
:10735000EFCF549882FDEFCF3B9883FDEFCF3A9863
:1073600084FDEFCF3D9885FFEFCF3C9A08951F92A3
:107370000F920FB60F9211248F939F93109281005A
:10738000109285001092840081E08093AE0180937A
:10739000B6011092B50110927C0093EA90937A00A6
:1073A00080937B009F918F910F900FBE0F901F9045
:1073B00018951F920F920FB60F9211242F933F939F
:1073C0004F935F936F937F938F939F93AF93BF93ED
:1073D000CF93DF93EF93FF9320918400309185004A
:1073E00041E04093B5018091AE018823A9F110924C
:1073F000850010928400409381001092C501109284
:10740000AE018091B6018823A1F080917A0086FDBB
:10741000FCCF80917800909179009093B401809393
:10742000B30181E080937C0093EA90937A0080938B
:107430007B00FF91EF91DF91CF91BF91AF919F9131
:107440008F917F916F915F914F913F912F910F900D
:107450000FBE0F901F901895C90187589109843766
:10746000994008F042C026583109A4EFB0E00E94CC
:10747000123BAA27BB2788309105A105B10508F466
:107480006BC04093AE018091B601811142C08091E2
:10749000B001E82FF0E0E954FE4F9091C5019083D0
:1074A0008F5F8093B0018C3021F610928100109292
:1074B0008500109284004093B6011092B501C091EE
:1074C000C101D091C20187EB91E00E94C03AC81778
:1074D000D90709F0AECFE0910401F091050161EB0D
:1074E00071E087EB91E00995A4CF10928100109292
:1074F0008500109284004093AE014093B601109233
:10750000B50110927C0083EA80937A0040937B005F
:1075100090CF80917A0086FDFCCF80917800909189
:1075200079009093B2018093B10110927C0083EABC
:1075300080937A0081E080937B009091C50199232C
:10754000D1F01092810010928500109284008093F7
:10755000B6011092B5016DCF21E030E0A90102C063
:10756000440F551F8A95E2F7CA019091C501892BF6
:107570008093C5015ECF1092B6011092B00159CF31
:10758000FC01AC01465F5F4F8FEF9FEF2191822797
:10759000082E8295807F8025092E982F82958F70E6
:1075A0000826869598278927880F880F880F8025B9
:1075B000E417F50759F70895F89481E085BF82E054
:1075C00085BF8CE1E6E0F1E0DF011D928A95E9F7E5
:1075D0008CED80932601109223011092AD01109240
:1075E000280110922701789483E598E39093050190
:1075F000809304010E94393980E30E9493398FE01F
:1076000097E20197F1F700C0000080E00E949339F3
:107610009FEFA9E6B8E19150A040B040E1F700C06B
:107620000000EACFA29FB001B39FC001A39F700DDD
:10763000811D1124911DB29F700D811D1124911D7A
:107640000895F999FECF92BD81BDF89A992780B52A
:067650000895F894FFCF3D
:06765600383935393439E2
:040000030000700089
:00000001FF
